:020000040800F2
:1000000088060020CD010008C9070008AD030008DC
:10001000C507000887020008D10D00080000000095
:10002000000000000000000000000000810C00083B
:100030008B020008000000006B0B00086D0D00082B
:10004000E7010008E7010008E7010008E7010008F0
:10005000E7010008E7010008E7010008E7010008E0
:10006000E7010008E7010008E7010008E7010008D0
:10007000E7010008E7010008E7010008E7010008C0
:10008000E7010008E7010008E7010008E7010008B0
:10009000E7010008E7010008E7010008E7010008A0
:1000A000E7010008E7010008E7010008E701000890
:1000B000E7010008E7010008E7010008E701000880
:1000C000E7010008E7010008E7010008E701000870
:1000D000E7010008E7010008E7010008E701000860
:1000E000E7010008E7010008E7010008E701000850
:1000F000E7010008E7010008E7010008E701000840
:10010000E7010008E7010008E7010008E70100082F
:10011000E7010008E7010008E7010008E70100081F
:10012000E7010008E7010008E7010008E70100080F
:1001300000F002F800F03AF80AA090E8000C8244BF
:100140008344AAF10107DA4501D100F02FF8AFF29C
:10015000090EBAE80F0013F0010F18BFFB1A43F0A5
:10016000010318472413000044130000103A24BF71
:1001700078C878C1FAD8520724BF30C830C144BF0C
:1001800004680C607047000000230024002500264E
:10019000103A28BF78C1FBD8520728BF30C148BFEA
:1001A0000B6070471FB51FBD10B510BD00F031F8D2
:1001B0001146FFF7F7FF00F00DFE00F04FF803B413
:1001C000FFF7F2FF03BC00F057F800000948804732
:1001D00009480047FEE7FEE7FEE7FEE7FEE7FEE729
:1001E000FEE7FEE7FEE7FEE704480549054A064B41
:1001F00070470000710D00083101000888000020E0
:10020000880600208802002088020020704770477E
:100210007047754600F02CF8AE4605006946534617
:1002200020F00700854618B020B5FFF7DDFFBDE8D8
:1002300020404FF000064FF000074FF000084FF04D
:10024000000B21F00701AC46ACE8C009ACE8C009DE
:10025000ACE8C009ACE8C0098D46704710B504464B
:10026000AFF300802046BDE81040FFF7A8BF0000B4
:10027000004870472400002001491820ABBEFEE76B
:1002800026000200704700BFFEE770472DE9F041ED
:10029000024600250026002000230024002791F8B4
:1002A00003C00CF00F0591F803C00CF0100CBCF16A
:1002B000000F03D091F802C04CEA050591F800C088
:1002C000BCF1000F31D0146800202BE04FF0010C7E
:1002D0000CFA00F3B1F800C00CEA03069E4220D1EC
:1002E00083004FF00F0C0CFA03F7BC4305FA03FC34
:1002F0004CEA040491F803C0BCF1280F06D14FF07A
:10030000010C0CFA00FCC2F814C00AE091F803C01A
:10031000BCF1480F05D14FF0010C0CFA00FCC2F8FB
:1003200010C0401C0828D1D31460B1F800C0BCF143
:10033000FF0F34DD546800202EE000F1080C4FF070
:10034000010808FA0CF3B1F800C00CEA03069E425B
:1003500021D183004FF00F0C0CFA03F7BC4305FAD0
:1003600003FC4CEA040491F803C0BCF1280F05D14A
:1003700000F1080C08FA0CF8C2F8148091F803C0D8
:10038000BCF1480F07D100F1080C4FF0010808FA42
:100390000CF8C2F81080401C0828CED35460BDE889
:1003A000F0810AB1016100E04161704700BFFEE7E2
:1003B00021B1028842F48062028004E002884FF694
:1003C000FF331A400280704770B5024600240025B2
:1003D00000230020958A138B1B0445EA030626F0B0
:1003E0007F4404EA01068E4201D1012000E0002092
:1003F00070BD21B1028842F00102028004E002884F
:100400004FF6FE731A400280704721B1028842F411
:100410008072028004E002884FF6FF631A40028077
:10042000704721B1028842F40072028004E0028821
:100430004FF6FF531A400280704700002DE9F04349
:1004400085B004460D460026B1460427DFF8CC806F
:10045000A6884FF6C0700640684600F0A7FBDDF89E
:1004600008802F48B8FBF0F01FFA80F946EA090629
:10047000A68020884FF6FE7108402080002629497A
:10048000286888420CD828684000B8FBF0F087B292
:10049000042F00DA04273E4309F10100208427E0FD
:1004A000E8884BF6FF71884206D1286800EB4000CF
:1004B000B8FBF0F087B209E0286800EBC00101EB5F
:1004C0000010B8FBF0F087B247F48047C7F30B0089
:1004D00008B947F0010747F4004006434FF496700F
:1004E00009FB00F04FF47A7190FBF1F0401C20847E
:1004F000A683208840F00100208026884FF6F53042
:100500000640A8886989084306432680A889298966
:100510000843208105B0BDE8F083000000127A0096
:1005200040420F00A08601000146088AC0B2704711
:1005300012B141F0010102E04FF6FE731940018251
:100540007047018270472DE9F05F06460F469046DE
:100550009946DDE90AAB3B2000F0A4F804463C20B4
:1005600000F0A0F8054645EA042000B230803D20A6
:1005700000F098F804463E2000F094F8054645EA5D
:10058000042000B238803F2000F08CF80446402060
:1005900000F088F8054645EA042000B2A8F80000FB
:1005A000432000F07FF80446442000F07BF8054625
:1005B00045EA042000B2A9F80000452000F072F8D6
:1005C0000446462000F06EF8054645EA042000B2D5
:1005D000AAF80000472000F065F80446482000F023
:1005E00061F8054645EA042000B2ABF80000BDE81A
:1005F000F09F10B5752000F055F810BD00B585B01E
:100600000121082000F0C2FA0121880500F0AEFAAD
:100610004FF44060ADF810001C208DF8130003204B
:100620008DF8120004A91C48FFF730FE0020ADF839
:1006300004004BF6FF70ADF806000020ADF808008E
:100640004FF48060ADF80A000001ADF80C001348CB
:10065000009069461248FFF7F1FE01211048FFF7AC
:10066000C8FE01216B2000F07BF800216C2000F017
:1006700077F80921192000F073F806211A2000F0FC
:100680006FF818211B2000F06BF818211C2000F0D7
:1006900067F805B000BD0000000C0140A086010015
:1006A0000058004070B5044601212148FFF7ADFE17
:1006B00020491F4800F042F80022D0211C48FFF7D3
:1006C00037FF1D491A4800F039F821461848FFF74E
:1006D00038FF1949891C164800F030F801211448E8
:1006E000FFF793FE1349124800F028F80122D021A9
:1006F0000F48FFF71DFF0F49491C0D4800F01EF879
:1007000000210B48FFF754FE01210948FFF789FE3D
:1007100008493F31064800F011F80548FFF704FF8B
:10072000054601210248FFF743FE284670BD000040
:1007300000580040010003008200070070B5054624
:100740000E4642F2107402E0641E04B905E0314620
:100750002846FFF739FE0128F6D100BF70BD000022
:1007600070B504460D4601211348FFF74EFE1349AC
:100770001148FFF7E3FF0022D0210F48FFF7D8FE12
:100780000F490D48FFF7DAFF21460B48FFF7D9FE66
:100790000B49891E0848FFF7D1FF29460648FFF795
:1007A000D0FE0749891C0448FFF7C8FF0121024811
:1007B000FFF737FE70BD0000005800400100030045
:1007C0008200070000BFFEE7704770B500240EE00E
:1007D0000021204600F0EDF8002504E0002000F0A4
:1007E000B4F9681CC5B2802DF8DB601CC4B2082CBB
:1007F000EEDB70BD08B50121082000F0C7F9142018
:100800008DF8030003208DF802004020ADF80000B1
:1008100069460A48FFF73AFD8020ADF800006946B6
:100820000648FFF733FD012240210448FFF7B9FDD8
:10083000012280210148FFF7B4FD08BD000C0140F2
:1008400070B50546002417E080202041284008B1FB
:10085000012000E00020024680210E48FFF7A1FDA4
:10086000012240210B48FFF79CFD0022402109484E
:10087000FFF797FD601CC4B2082CE5DB0122402184
:100880000448FFF78EFD002240210248FFF789FD52
:1008900070BD0000000C014010B501228021094804
:1008A000FFF77FFD012240210648FFF77AFD002275
:1008B00080210448FFF775FD002240210148FFF721
:1008C00070FD10BD000C014010B5002280210748CA
:1008D000FFF767FD012240210448FFF762FD012276
:1008E00080210248FFF75DFD10BD0000000C0140B3
:1008F00070B5002406E0002500E06D1CB5F57A7F98
:10090000FBD3641CB4F57A7FF5D3FFF773FFAE20F9
:1009100000F00BF9D52000F008F9802000F005F96F
:10092000A82000F002F93F2000F0FFF8D32000F0EB
:10093000FCF8002000F0F9F8402000F0F6F8A120C3
:1009400000F0F3F8C82000F0F0F8DA2000F0EDF83D
:10095000122000F0EAF8812000F0E7F8CF2000F044
:10096000E4F8D92000F0E1F8F12000F0DEF8DB2017
:1009700000F0DBF8302000F0D8F8A42000F0D5F823
:10098000A62000F0D2F88D2000F0CFF8142000F05F
:10099000CCF8AF2000F0C9F8FFF717FF70BD10B515
:1009A0000246012000E050430B1EA1F10101FAD1E3
:1009B00010BD70B505460C4645F0B00000F0B5F826
:1009C000102141EA141000F0B0F804F00F0000F01C
:1009D000ACF870BD2DE9F04105460E461746721E73
:1009E000D206110E6A1E5206100EFFF7E2FF002417
:1009F00009E0A7F12001134A02EB0111085D00F0A4
:100A0000A4F8601CC4B2082CF3DB721ED206110ECF
:100A10006A1E012303EB4202D0B2FFF7CAFF002493
:100A20000BE0A7F12001074A02EB011204F10801D3
:100A3000505C00F08AF8601CC4B2082CF1DBBDE801
:100A4000F0810000980E00082DE9F04781460E461F
:100A500090461F4600241DE0381B411E1020FFF762
:100A60009EFFB8FBF0F000F00F050A2D08DA05F143
:100A70003000C2B23019C1B24846FFF7ABFF07E001
:100A800005F13700C2B23019C1B24846FFF7A2FFE4
:100A9000601CC4B2BC42DFDBBDE8F0872DE9F04743
:100AA0008146884615461E46002D06DB2B22414610
:100AB0004846FFF78FFF2F4605E02D224146484666
:100AC000FFF788FF6F42002417E0301B411E0A2009
:100AD000FFF765FFB7FBF0F00A21B0FBF1F201FB75
:100AE000120000F1300A08EB0400401CC1B252466B
:100AF0004846FFF76FFF601CC4B2B442E5DBBDE8B7
:100B0000F0872DE9F04107460E461546002407E020
:100B10002A5D3019C1B23846FFF75CFF601CC4B2D1
:100B2000285D0028F4D1BDE8F08110B50446FFF738
:100B3000B3FE7820FFF784FE0020FFF781FE2046F9
:100B4000FFF77EFEFFF7C0FE10BD10B50446FFF7AD
:100B5000A3FE7820FFF774FE4020FFF771FE2046C9
:100B6000FFF76EFEFFF7B0FE10BD704729B1064AD1
:100B7000D2690243044BDA6104E0034AD26982433A
:100B8000014BDA61704700000010024029B1064AAB
:100B900092690243044B9A6104E0034A92698243DA
:100BA000014B9A61704700000010024030B50021EF
:100BB0000022002400232D4D6D6805F00C0121B1A9
:100BC000042905D0082923D105E0294D056022E03C
:100BD000274D05601FE0254D6D6805F47012234D0B
:100BE0006D6805F48034022505EB92421CB9214D55
:100BF000554305600BE01D4D6D6805F400351DB1D2
:100C00001C4D5543056002E0194D5543056002E057
:100C1000174D056000BF00BF144D6D6805F0F00171
:100C20000909154D6B5C0568DD4045600F4D6D6829
:100C300005F4E061090A104D6B5C4568DD40856094
:100C40000A4D6D6805F46051C90A0B4D6B5C45682F
:100C5000DD40C560054D6D6805F44041890B074DC9
:100C60006B5CC568B5FBF3F5056130BD0010024053
:100C700000127A0000093D00000000201000002052
:100C8000704710B500F002F810BD00000CB5002050
:100C9000019000903348006840F48030314908608A
:100CA00000BF3048006800F4003000900198401CFC
:100CB0000190009818B90198B0F5A06FF1D12948BA
:100CC000006800F4003010B10120009001E0002025
:100CD00000900098012843D12348006840F010009C
:100CE000214908600846006820F0070008600846AF
:100CF000006840F0020008601A48406819494860DE
:100D00000846406848600846406840F48060486093
:100D10000846406820F47C1048600846406840F46B
:100D2000E81048600846006840F08070086000BF26
:100D30000C48006800F000700028F9D009484068AD
:100D400020F00300074948600846406840F0020070
:100D5000486000BF0348406800F00C000828F9D143
:100D60000CBD00000010024000200240704700004F
:100D700010B51348006840F00100114908600846AA
:100D80004068104908400E494860084600680E490E
:100D900008400B4908600846006820F4802008607D
:100DA0000846406820F4FE0048604FF41F00886049
:100DB000FFF767FF4FF000600449086010BD0000B6
:100DC000001002400000FFF8FFFFF6FE08ED00E013
:100DD00000BFFEE71CB5FFF78BFDFFF70FFC26A257
:100DE00001210846FFF78DFEFFF703FC2349087039
:100DF00002230846027804210120FFF725FE39E08E
:100E00001F482049204B214ACDE9001020492148A4
:100E1000FFF799FB05231F48B0F9002001210220AC
:100E2000FFF73CFE05231A48B0F9002001210320FA
:100E3000FFF734FE05231548B0F9002001210420F6
:100E4000FFF72CFE05231048B0F9002008210220EE
:100E5000FFF724FE05230B48B0F9002008210320EA
:100E6000FFF71CFE05230648B0F9002008210420E6
:100E7000FFF714FEC4E7000049443A0014000020C4
:100E8000200000201E0000201C0000201A0000206E
:100E900018000020160000200000000000000000E4
:100EA0000000000000000000000000F8000000004A
:100EB000000000333000000000100C06100C06008B
:100EC000000000000000000040C07840C0784000F2
:100ED000043F04043F040400007088FC0830000054
:100EE000001820FF211E0000F008F000E0180000AC
:100EF00000211C031E211E0000F008887000000065
:100F00001E2123241927211010160E0000000000B6
:100F10000000000000000000000000E018040200D3
:100F2000000000071820400000020418E000000044
:100F30000040201807000000404080F08040400042
:100F40000202010F01020200000000F00000000098
:100F50000101011F0101010000000000000000006C
:100F600080B07000000000000000000000000000E1
:100F7000000101010101010100000000000000006A
:100F80000030300000000000000000008060180405
:100F9000006018060100000000E010080810E000E2
:100FA000000F102020100F00001010F800000000AB
:100FB0000020203F202000000070080808887000F2
:100FC0000030282422213000003008888848300072
:100FD0000018202020110E000000C02010F8000092
:100FE00000070424243F240000F80888880808002B
:100FF0000019212020110E0000E010888818000040
:10100000000F112020110E0000380808C838080011
:101010000000003F00000000007088080888700091
:10102000001C222121221C0000E010080810E00012
:101030000000312222110F00000000C0C00000009B
:1010400000000030300000000000008000000000C0
:1010500000008060000000000000804020100800B8
:101060000001020408102000404040404040400081
:10107000040404040404040000081020408000005C
:101080000020100804020100007048080808F00061
:101090000000003036010000C030C828E810E00031
:1010A0000718272423140B000000C038E0000000BC
:1010B000203C23020227382008F888888870000026
:1010C000203F202020110E00C030080808083800FA
:1010D000071820202010080008F808080810E00071
:1010E000203F202020100F0008F88888E808100012
:1010F000203F20202320180008F88888E8081000E6
:10110000203F200003000000C0300808083800001D
:1011100007182020221E020008F808000008F8081E
:10112000203F210101213F20000808F808080000A5
:101130000020203F2020000000000808F8080800D8
:10114000C08080807F00000008F888C02818080050
:10115000203F20012638200008F808000000000089
:10116000203F20202020300008F8F800F8F8080080
:10117000203F003F003F200008F830C00008F8087A
:10118000203F200007183F00E01008080810E0008A
:101190000F10202020100F0008F808080808F000A1
:1011A000203F210101010000E01008080810E000C4
:1011B0000F18242438504F0008F888888888700059
:1011C000203F2000030C30200070880808083800F9
:1011D0000038202121221C00180808F808081800EF
:1011E0000000203F2000000008F808000008F80870
:1011F000001F202020201F000878880000C8380821
:10120000000007380E010000F80800F80008F80098
:10121000033C0700073C0300081868808068180832
:1012200020302C03032C30200838C800C8380800B0
:101230000000203F2000000010080808C8380800FF
:101240002038262120201800000000FE02020200A3
:101250000000007F40404000000C30C00000000053
:10126000000000010638C00000020202FE0000007B
:10127000004040407F000000000004020202040021
:10128000000000000000000000000000000000005E
:101290008080808080808080000202040000000046
:1012A000000000000000000000008080808000003E
:1012B0000019242222223F2008F80080800000002C
:1012C000003F112020110E000000008080800000EF
:1012D000000E112020201100000000808088F800FE
:1012E000000E112020103F20000080808080000030
:1012F000001F222222221300008080F08888881894
:101300000020203F2020000000008080808080009E
:10131000006B94949493600008F800808080000033
:10132000203F210000203F2000809898000000000E
:101330000020203F2020000000000080989800003E
:1013400000C08080807F000008F80000808080005E
:10135000203F24022D302000000808F80000000083
:101360000020203F2020000080808080808080003E
:10137000203F20003F20003F8080008080800000D0
:10138000203F210000203F2000008080808000005E
:10139000001F202020201F0080800080800000008F
:1013A00080FFA12020110E000000008080808000BE
:1013B000000E112020A0FF808080800080808000AF
:1013C00020203F21200001000000808080808000DC
:1013D0000033242424241900008080E08080000051
:1013E0000000001F2020000080800000008080009E
:1013F000001F202020103F208080800000808080FF
:1014000000010E300806010080800080008080808E
:101410000F300C030C300F000080800080808000B3
:101420000020312E0E3120008080800000808080DE
:1014300080818E701806010000808080808080008E
:101440000021302C2221300000000000807C0202AC
:1014500000000000003F404000000000FF000000CE
:1014600000000000FF0000000002027C800000007D
:101470000040403F00000000000601010202040499
:101480000000000000000000A81400080000002078
:10149000240000006C010008CC1400082400002087
:1014A0006406000088010008000000000102030437
:1014B00001020304060708090204060800000000F0
:0C14C00000000000000000000000000020
:0400000508000131BD
:00000001FF
