:020000040800F2
:10000000180400204901000805030008FD0200084B
:100010000103000891010008230C00080000000003
:10002000000000000000000000000000C107000800
:100030009501000800000000C9060008AD0900088D
:100040006301000863010008630100086301000800
:1000500063010008630100086301000863010008F0
:1000600063010008630100086301000863010008E0
:1000700063010008630100086301000863010008D0
:1000800063010008630100086301000863010008C0
:1000900063010008630100086301000863010008B0
:1000A00063010008630100086301000863010008A0
:1000B0006301000863010008630100086301000890
:1000C0006301000863010008630100086301000880
:1000D00063010008110A00086301000863010008B9
:1000E0006301000863010008630100086301000860
:1000F0006301000863010008630100086301000850
:10010000630100086301000863010008630100083F
:10011000630100086301000863010008630100082F
:10012000630100086301000863010008630100081F
:10013000DFF810D000F01AF800480047450C00081E
:10014000AFF30080180400200648804706480047A7
:10015000FEE7FEE7FEE7FEE7FEE7FEE7FEE7FEE777
:10016000FEE7FEE7B109000831010008064C074D23
:1001700006E0E06840F0010394E807009847103477
:10018000AC42F6D3FFF7D8FFB8120008D812000827
:1001900000BFFEE7704700B5034603E04FF47A70F6
:1001A00000F005F8181EA3F10103F7D100BD00EB24
:1001B000C001C9004FF0E022516100219161052189
:1001C000116100BF4FF0E021096901F4803100297D
:1001D000F8D004214FF0E022116170472DE9F04181
:1001E000024600250026002000230024002791F865
:1001F00003C00CF00F0591F803C00CF0100CBCF11B
:10020000000F03D091F802C04CEA050591F800C038
:10021000BCF1000F31D0146800202BE04FF0010C2E
:100220000CFA00F3B1F800C00CEA03069E4220D19C
:1002300083004FF00F0C0CFA03F7BC4305FA03FCE4
:100240004CEA040491F803C0BCF1280F06D14FF02A
:10025000010C0CFA00FCC2F814C00AE091F803C0CB
:10026000BCF1480F05D14FF0010C0CFA00FCC2F8AC
:1002700010C0401C0828D1D31460B1F800C0BCF1F4
:10028000FF0F34DD546800202EE000F1080C4FF021
:10029000010808FA0CF3B1F800C00CEA03069E420C
:1002A00021D183004FF00F0C0CFA03F7BC4305FA81
:1002B00003FC4CEA040491F803C0BCF1280F05D1FB
:1002C00000F1080C08FA0CF8C2F8148091F803C089
:1002D000BCF1480F07D100F1080C4FF0010808FAF3
:1002E0000CF8C2F81080401C0828CED35460BDE83A
:1002F000F0810AB1016100E04161704700BFFEE793
:1003000000BFFEE77047000070B5002100230F22F8
:10031000C47804B3154C246804F4E064C4F5E064C4
:10032000210AC1F10403CA40447804FA03F1847835
:100330001440214309010E4C0678A155047804F0BD
:100340001F050124AC4005786D11AD0005F1E025D5
:10035000C5F8004109E0047804F01F050124AC4011
:10036000044D0678761145F8264070BD0CED00E08E
:1003700000E400E080E100E002490143024A11602C
:10038000704700000000FA050CED00E070B5002495
:100390000EE00021204600F0EEF8002504E00020E9
:1003A00000F082F9681CC5B2802DF8DB601CC4B275
:1003B000082CEEDB70BD000008B50121082000F01C
:1003C00085F914208DF8030003208DF802004020E9
:1003D000ADF8000069460A48FFF700FF8020ADF83D
:1003E000000069460648FFF7F9FE01224021044853
:1003F000FFF77FFF012280210148FFF77AFF08BD48
:10040000000C014070B50546002417E08020204113
:10041000284008B1012000E00020024680210E485B
:10042000FFF767FF012240210B48FFF762FF002220
:1004300040210948FFF75DFF601CC4B2082CE5DBD2
:10044000012240210448FFF754FF002240210248C6
:10045000FFF74FFF70BD0000000C014010B50122F6
:1004600080210948FFF745FF012240210648FFF798
:1004700040FF002280210448FFF73BFF002240217B
:100480000148FFF736FF10BD000C014010B50022F7
:1004900080210748FFF72DFF012240210448FFF784
:1004A00028FF012280210248FFF723FF10BD000032
:1004B000000C014070B5002406E0002500E06D1C32
:1004C000B5F57A7FFBD3641CB4F57A7FF5D3FFF7DB
:1004D00073FFAE2000F0D8F8D52000F0D5F88020CA
:1004E00000F0D2F8A82000F0CFF83F2000F0CCF8C0
:1004F000D32000F0C9F8002000F0C6F8402000F03A
:10050000C3F8A12000F0C0F8C82000F0BDF8DA2040
:1005100000F0BAF8122000F0B7F8812000F0B4F82B
:10052000CF2000F0B1F8D92000F0AEF8F12000F0B3
:10053000ABF8DB2000F0A8F8302000F0A5F8A420EC
:1005400000F0A2F8A62000F09FF88D2000F09CF8A3
:10055000142000F099F8AF2000F096F8FFF716FF8E
:1005600070BD10B50246012000E050430B1EA1F102
:100570000101FAD110BD70B505460C4645F0B0003A
:1005800000F082F8102141EA141000F07DF804F028
:100590000F0000F079F870BD2DE9F04105460E46D8
:1005A0001746721ED206110E6A1E5206100EFFF773
:1005B000E2FF002409E0A7F12001134A02EB011138
:1005C000085D00F071F8601CC4B2082CF3DB721EE9
:1005D000D206110E6A1E012303EB4202D0B2FFF7CE
:1005E000CAFF00240BE0A7F12001074A02EB011229
:1005F00004F10801505C00F057F8601CC4B2082CEC
:10060000F1DBBDE8F0810000C80C00082DE9F047DF
:1006100081460E4690461F4600241DE0381B411EB1
:100620001020FFF79EFFB8FBF0F000F00F050A2D39
:1006300008DA05F13000C2B23019C1B24846FFF7FE
:10064000ABFF07E005F13700C2B23019C1B248462E
:10065000FFF7A2FF601CC4B2BC42DFDBBDE8F0873D
:100660002DE9F04107460E461546002407E02A5DB5
:100670003019C1B23846FFF78FFF601CC4B2285D45
:100680000028F4D1BDE8F08110B50446FFF7E6FE7E
:100690007820FFF7B7FE0020FFF7B4FE2046FFF7F3
:1006A000B1FEFFF7F3FE10BD10B50446FFF7D6FE0E
:1006B0007820FFF7A7FE4020FFF7A4FE2046FFF7B3
:1006C000A1FEFFF7E3FE10BD7047000029B1064A06
:1006D00092690243044B9A6104E0034A926982439F
:1006E000014B9A61704700000010024030B50021B4
:1006F0000022002400232D4D6D6805F00C0121B16E
:10070000042905D0082923D105E0294D056022E000
:10071000274D05601FE0254D6D6805F47012234DCF
:100720006D6805F48034022505EB92421CB9214D19
:10073000554305600BE01D4D6D6805F400351DB196
:100740001C4D5543056002E0194D5543056002E01C
:10075000174D056000BF00BF144D6D6805F0F00136
:100760000909154D6B5C0568DD4045600F4D6D68EE
:1007700005F4E061090A104D6B5C4568DD40856059
:100780000A4D6D6805F46051C90A0B4D6B5C4568F4
:10079000DD40C560054D6D6805F44041890B074D8E
:1007A0006B5CC568B5FBF3F5056130BD0010024018
:1007B00000127A0000093D00000000201000002017
:1007C00070470000014800787047000015000020C5
:1007D00005480078012804D1002003490870012051
:1007E00070470020FCE700001600002000B587B02D
:1007F00001218803FFF76AFF01210420FFF766FF4C
:1008000018208DF81B004FF40070ADF8180003207D
:100810008DF81A0006A92148FFF7E0FC48208DF862
:100820001B004FF48060ADF8180003208DF81A000B
:1008300006A91A48FFF7D2FC4FF416500290002088
:10084000ADF814000C20ADF812000020ADF8100037
:10085000ADF80E00ADF80C0002A9114800F06CF9DB
:10086000012240F225510E4800F040F94FF4A060FB
:10087000FFF782FD25208DF8040001208DF8070088
:100880008DF805008DF8060001A8FFF73DFD012158
:10089000034800F0E8F807B000BD00000008014080
:1008A0000038014010B504462146054800F0B5F96E
:1008B00000BF8021024800F0E2F80028F9D010BD06
:1008C0000038014010B500F001F810BD0CB5002053
:1008D000019000903348006840F48030314908604E
:1008E00000BF3048006800F4003000900198401CC0
:1008F0000190009818B90198B0F5A06FF1D129487E
:10090000006800F4003010B10120009001E00020E8
:1009100000900098012843D12348006840F010005F
:10092000214908600846006820F007000860084672
:10093000006840F0020008601A48406819494860A1
:100940000846406848600846406840F48060486057
:100950000846406820F47C1048600846406840F42F
:10096000E81048600846006840F08070086000BFEA
:100970000C48006800F000700028F9D00948406871
:1009800020F00300074948600846406840F0020034
:10099000486000BF0348406800F00C000828F9D107
:1009A0000CBD000000100240002002407047000013
:1009B00010B51348006840F001001149086008466E
:1009C0004068104908400E494860084600680E49D2
:1009D00008400B4908600846006820F48020086041
:1009E0000846406820F4FE0048604FF41F0088600D
:1009F000FFF768FF4FF000600449086010BD000079
:100A0000001002400000FFF8FFFFF6FE08ED00E0D6
:100A100010B540F22551094800F03EF801280CD1EC
:100A2000064800F0F5F806490870012005490870ED
:100A300040F22551014800F007F810BD0038014090
:100A4000150000201600002010B50022002340F6FB
:100A50006A14A14200D100BF0A1201249440A3B23B
:100A6000DC43048010BD21B1828942F400528281AE
:100A700004E082894DF6FF731A4082817047024676
:100A80000020B1F5007F00D100BF13880B400BB1EF
:100A9000012000E00020704770B5024600240023CA
:100AA0000025002040F66A16B14200D100BFC1F314
:100AB000421501F01F03012606FA03F3012D02D1AE
:100AC0009689334006E0022D02D1168A334001E0B8
:100AD000968A33400C12012606FA04F41688344034
:100AE00013B10CB1012000E0002070BDF0B5034649
:100AF000002400260025002040F66A17B94200D1E4
:100B000000BF1846C1F3421401F01F06012707FA7F
:100B100006F5012C01D10C3004E0022C01D110307B
:100B200000E014301AB107682F43076002E007683D
:100B3000AF430760F0BD00002DE9F04786B00546E1
:100B40000E460024A24600BFA1460027B08900B18E
:100B500000BF2F462C8A4CF6FF700440F0880443F7
:100B60002C82AC894EF6F3100440B08831890843DA
:100B7000718908430443AC81AC8A4FF6FF400440BE
:100B8000B0890443AC8201A8FFF7B0FD1F4887423B
:100B900002D1DDF810A001E0DDF80CA0A88900F476
:100BA000004040B10AEBCA0000EB0A10316849006E
:100BB000B0FBF1F807E00AEBCA0000EB0A1031685D
:100BC0008900B0FBF1F86420B8FBF0F004012009C3
:100BD000642101FB1089A88900F4004040B1322053
:100BE00000EBC900B0FBF1F000F00700044308E09F
:100BF000322000EB09106421B0FBF1F000F00F008F
:100C000004432C8106B0BDE8F087000000380140A5
:100C100001468888C0F308007047C1F3080282804B
:100C2000704700BFFEE702E008C8121F08C1002A93
:100C3000FAD170477047002001E001C1121F002A5D
:100C4000FBD17047FFF736FC17A201210846FFF7DA
:100C500007FDFFF7CBFD25E0FFF7BAFD01280ED118
:100C6000FFF7B0FD1249087008460078FFF71AFE3A
:100C700002230F48027808210120FFF7C7FC0DA2CC
:100C800001210220FFF7ECFC4FF4FA70FFF783FA22
:100C90000AA201210220FFF7E3FC4FF4FA70FFF7EC
:100CA0007AFA30BFD8E700005278446174613A00A4
:100CB0001400002052756E6E696E6700202020209F
:100CC00020202020000000000000000000000000A4
:100CD0000000000000000000000000F8000000001C
:100CE000000000333000000000100C06100C06005D
:100CF000000000000000000040C07840C0784000C4
:100D0000043F04043F040400007088FC0830000025
:100D1000001820FF211E0000F008F000E01800007D
:100D200000211C031E211E0000F008887000000036
:100D30001E2123241927211010160E000000000088
:100D40000000000000000000000000E018040200A5
:100D5000000000071820400000020418E000000016
:100D60000040201807000000404080F08040400014
:100D70000202010F01020200000000F0000000006A
:100D80000101011F0101010000000000000000003E
:100D900080B07000000000000000000000000000B3
:100DA000000101010101010100000000000000003C
:100DB00000303000000000000000000080601804D7
:100DC000006018060100000000E010080810E000B4
:100DD000000F102020100F00001010F8000000007D
:100DE0000020203F202000000070080808887000C4
:100DF0000030282422213000003008888848300044
:100E00000018202020110E000000C02010F8000063
:100E100000070424243F240000F8088888080800FC
:100E20000019212020110E0000E010888818000011
:100E3000000F112020110E0000380808C8380800E3
:100E40000000003F00000000007088080888700063
:100E5000001C222121221C0000E010080810E000E4
:100E60000000312222110F00000000C0C00000006D
:100E70000000003030000000000000800000000092
:100E8000000080600000000000008040201008008A
:100E90000001020408102000404040404040400053
:100EA000040404040404040000081020408000002E
:100EB0000020100804020100007048080808F00033
:100EC0000000003036010000C030C828E810E00003
:100ED0000718272423140B000000C038E00000008E
:100EE000203C23020227382008F8888888700000F8
:100EF000203F202020110E00C030080808083800CC
:100F0000071820202010080008F808080810E00042
:100F1000203F202020100F0008F88888E8081000E3
:100F2000203F20202320180008F88888E8081000B7
:100F3000203F200003000000C030080808380000EF
:100F400007182020221E020008F808000008F808F0
:100F5000203F210101213F20000808F80808000077
:100F60000020203F2020000000000808F8080800AA
:100F7000C08080807F00000008F888C02818080022
:100F8000203F20012638200008F80800000000005B
:100F9000203F20202020300008F8F800F8F8080052
:100FA000203F003F003F200008F830C00008F8084C
:100FB000203F200007183F00E01008080810E0005C
:100FC0000F10202020100F0008F808080808F00073
:100FD000203F210101010000E01008080810E00096
:100FE0000F18242438504F0008F88888888870002B
:100FF000203F2000030C30200070880808083800CB
:101000000038202121221C00180808F808081800C0
:101010000000203F2000000008F808000008F80841
:10102000001F202020201F000878880000C83808F2
:10103000000007380E010000F80800F80008F8006A
:10104000033C0700073C0300081868808068180804
:1010500020302C03032C30200838C800C838080082
:101060000000203F2000000010080808C8380800D1
:101070002038262120201800000000FE0202020075
:101080000000007F40404000000C30C00000000025
:10109000000000010638C00000020202FE0000004D
:1010A000004040407F0000000000040202020400F3
:1010B0000000000000000000000000000000000030
:1010C0008080808080808080000202040000000018
:1010D0000000000000000000000080808080000010
:1010E0000019242222223F2008F8008080000000FE
:1010F000003F112020110E000000008080800000C1
:10110000000E112020201100000000808088F800CF
:10111000000E112020103F20000080808080000001
:10112000001F222222221300008080F08888881865
:101130000020203F20200000000080808080800070
:10114000006B94949493600008F800808080000005
:10115000203F210000203F200080989800000000E0
:101160000020203F20200000000000809898000010
:1011700000C08080807F000008F800008080800030
:10118000203F24022D302000000808F80000000055
:101190000020203F20200000808080808080800010
:1011A000203F20003F20003F8080008080800000A2
:1011B000203F210000203F20000080808080000030
:1011C000001F202020201F00808000808000000061
:1011D00080FFA12020110E00000000808080800090
:1011E000000E112020A0FF80808080008080800081
:1011F00020203F21200001000000808080808000AE
:101200000033242424241900008080E08080000022
:101210000000001F2020000080800000008080006F
:10122000001F202020103F208080800000808080D0
:1012300000010E3008060100808000800080808060
:101240000F300C030C300F00008080008080800085
:101250000020312E0E3120008080800000808080B0
:1012600080818E7018060100008080808080800060
:101270000021302C2221300000000000807C02027E
:1012800000000000003F404000000000FF000000A0
:1012900000000000FF0000000002027C800000004F
:1012A0000040403F0000000000060101020204046B
:1012B0000000000000000000D8120008000000201C
:1012C00018000000260C0008F0120008180000208A
:1012D00000040000360C00080000000001020304B6
:1012E00001020304060708090204060800000000C2
:0400000508000131BD
:00000001FF
