:020000040800F2
:1000000060060020B1010008D3030008CB030008FC
:10001000CF030008A5020008A107000800000000A7
:100020000000000000000000000000005106000871
:10003000A9020008000000000D0600083D070008A6
:10004000CB010008CB010008CB010008CB01000860
:10005000CB010008CB010008CB010008CB01000850
:10006000CB010008CB010008CB010008CB01000840
:10007000CB010008CB010008CB010008CB01000830
:10008000CB010008CB010008CB010008CB01000820
:10009000CB010008CB010008CB010008CB01000810
:1000A000CB010008CB010008CB010008CB01000800
:1000B000CB010008CB010008CB010008CB010008F0
:1000C000CB010008CB010008CB010008CB010008E0
:1000D000CB010008CB010008CB010008CB010008D0
:1000E000CB010008CB010008CB010008CB010008C0
:1000F000CB010008CB010008CB010008CB010008B0
:10010000CB010008CB010008CB010008CB0100089F
:10011000CB010008CB010008CB010008CB0100088F
:10012000CB010008CB010008CB010008CB0100087F
:1001300000F002F800F02CF80AA090E8000C8244CD
:100140008344AAF10107DA4501D100F021F8AFF2AA
:10015000090EBAE80F0013F0010F18BFFB1A43F0A5
:1001600001031847680600007806000000230024F9
:1001700000250026103A28BF78C1FBD8520728BFB7
:1001800030C148BF0B6070471FB51FBD10B510BD13
:1001900000F031F81146FFF7F7FF00F003FB00F025
:1001A0004FF803B4FFF7F2FF03BC00F057F800006C
:1001B0000948804709480047FEE7FEE7FEE7FEE7FB
:1001C000FEE7FEE7FEE7FEE7FEE7FEE70448054937
:1001D000054A064B7047000041070008310100083E
:1001E0006000002060060020600200206002002005
:1001F000704770477047754600F02CF8AE46050012
:100200006946534620F00700854618B020B5FFF731
:10021000DDFFBDE820404FF000064FF000074FF033
:1002200000084FF0000B21F00701AC46ACE8C00914
:10023000ACE8C009ACE8C009ACE8C0098D4670471D
:1002400010B50446AFF300802046BDE81040FFF72C
:10025000A8BF000000487047000000200149182096
:10026000ABBEFEE7260002007047000008B501465D
:1002700000200090034800900098084400900098E7
:10028000008808BD006C004008B500220092044AB6
:100290000092009A02440092009A116008BD00008A
:1002A000006C004000BFFEE770472DE9F0410246B8
:1002B00000250026002000230024002791F803C019
:1002C0000CF00F0591F803C00CF0100CBCF1000FFE
:1002D00003D091F802C04CEA050591F800C0BCF1CA
:1002E000000F31D0146800202BE04FF0010C0CFA05
:1002F00000F3B1F800C00CEA03069E4220D183004F
:100300004FF00F0C0CFA03F7BC4305FA03FC4CEA60
:10031000040491F803C0BCF1280F06D14FF0010C82
:100320000CFA00FCC2F814C00AE091F803C0BCF15A
:10033000480F05D14FF0010C0CFA00FCC2F810C0B8
:10034000401C0828D1D31460B1F800C0BCF1FF0FE5
:1003500034DD546800202EE000F1080C4FF0010855
:1003600008FA0CF3B1F800C00CEA03069E4221D152
:1003700083004FF00F0C0CFA03F7BC4305FA03FCA3
:100380004CEA040491F803C0BCF1280F05D100F138
:10039000080C08FA0CF8C2F8148091F803C0BCF1FC
:1003A000480F07D100F1080C4FF0010808FA0CF8CB
:1003B000C2F81080401C0828CED35460BDE8F081FC
:1003C0000AB1016100E04161704700BFFEE700BF74
:1003D000FEE7704770B500240EE00021204600F0D3
:1003E000E4F8002504E0002000F000F9681CC5B224
:1003F000802DF8DB601CC4B2082CEEDB70BD000061
:1004000008B50121082000F013F914208DF803002D
:1004100003208DF802004020ADF8000069460A482C
:10042000FFF743FF8020ADF8000069460648FFF75C
:100430003CFF012240210448FFF7C2FF0122802136
:100440000148FFF7BDFF08BD000C014070B505462F
:10045000002417E080202041284008B1012000E05E
:100460000020024680210E48FFF7AAFF012240210A
:100470000B48FFF7A5FF002240210948FFF7A0FF26
:10048000601CC4B2082CE5DB012240210448FFF7C0
:1004900097FF002240210248FFF792FF70BD000045
:1004A000000C014010B5012280210948FFF788FFA8
:1004B000012240210648FFF783FF002280210448E3
:1004C000FFF77EFF002240210148FFF779FF10BDB2
:1004D000000C014010B5002280210748FFF770FF93
:1004E000012240210448FFF76BFF012280210248CE
:1004F000FFF766FF10BD0000000C014070B500243E
:1005000006E0002500E06D1CB5F57A7FFBD3641C86
:10051000B4F57A7FF5D3FFF773FFAE2000F056F8FD
:10052000D52000F053F8802000F050F8A82000F00B
:100530004DF83F2000F04AF8D32000F047F80020A3
:1005400000F044F8402000F041F8A12000F03EF80F
:10055000C82000F03BF8DA2000F038F8122000F054
:1005600035F8812000F032F8CF2000F02FF8D920A4
:1005700000F02CF8F12000F029F8DB2000F026F83C
:10058000302000F023F8A42000F020F8A62000F08E
:100590001DF88D2000F01AF8142000F017F8AF2095
:1005A00000F014F8FFF716FF70BD70B505460C4655
:1005B00045F0B00000F00AF8102141EA141000F0F4
:1005C00005F804F00F0000F001F870BD10B5044606
:1005D000FFF768FF7820FFF739FF0020FFF736FFAD
:1005E0002046FFF733FFFFF775FF10BD10B5044637
:1005F000FFF758FF7820FFF729FF4020FFF726FF7D
:100600002046FFF723FFFFF765FF10BD704700008E
:1006100029B1064AD2690243044BDA6104E0034A75
:10062000D2698243014BDA6170470000001002403A
:1006300029B1064A92690243044B9A6104E0034AD5
:1006400092698243014B9A6170470000001002409A
:10065000704710B500F002F810BD00000CB5002086
:10066000019000903348006840F4803031490860C0
:1006700000BF3048006800F4003000900198401C32
:100680000190009818B90198B0F5A06FF1D12948F0
:10069000006800F4003010B10120009001E000205B
:1006A00000900098012843D12348006840F01000D2
:1006B000214908600846006820F0070008600846E5
:1006C000006840F0020008601A4840681949486014
:1006D0000846406848600846406840F480604860CA
:1006E0000846406820F47C1048600846406840F4A2
:1006F000E81048600846006840F08070086000BF5D
:100700000C48006800F000700028F9D009484068E3
:1007100020F00300074948600846406840F00200A6
:10072000486000BF0348406800F00C000828F9D179
:100730000CBD000000100240002002407047000085
:1007400010B51348006840F00100114908600846E0
:100750004068104908400E494860084600680E4944
:1007600008400B4908600846006820F480200860B3
:100770000846406820F4FE0048604FF41F0088607F
:10078000FFF767FF4FF000600449086010BD0000EC
:10079000001002400000FFF8FFFFF6FE08ED00E049
:1007A00000BFFEE7FFF7AAFE01210807FFF730FFB1
:1007B0000121C806FFF72CFF41F234210420FFF786
:1007C00063FD0420FFF752FD00BFFEE7DC070008D1
:0C07D00000000020600600006C01000822
:0400000508000131BD
:00000001FF
